:020000040000fa
:080000000002040000000000f2
:020000040000fa
:10000800580300005803000058030000580300007c
:10001800580300005803000058030000580300006c
:100028005803000058030000580300000a4000006d
:10003800623c0000580300005803000038400000ec
:1000480066400000580300005803000058030000f1
:1000580058030000580300006a3c000058030000e1
:10006800580300005803000058030000580300001c
:10007800580300005803000058030000580300000c
:100088005803000058030000580300009440000083
:10009800c240000058030000580300005803000045
:1000a800580300005803000058030000980200009d
:1000b80058030000580300005803000058030000cc
:1000c80058030000580300005803000058030000bc
:1000d80058030000580300005803000058030000ac
:1000e800580300005803000058030000580300009c
:1000f800580300005803000058030000580300008c
:10010800580300005803000058030000580300007b
:10011800580300005803000058030000580300006b
:10012800580300005803000058030000580300005b
:10013800580300005803000058030000580300004b
:10014800580300005803000058030000580300003b
:10015800580300005803000058030000580300002b
:10016800580300005803000058030000580300001b
:10017800580300005803000058030000580300000b
:1001880058030000580300005803000058030000fb
:1001980058030000580300005803000058030000eb
:1001a80058030000580300005803000058030000db
:1001b80058030000580300005803000058030000cb
:1001c80058030000580300005803000058030000bb
:1001d80058030000580300005803000058030000ab
:1001e800580300005803000058030000580300009b
:0801f800580300005803000049
:020000040000fa
:10020800580300005803000058030000580300007a
:10021800580300005803000058030000580300006a
:100228005803000058030000580300000a4000006b
:10023800623c0000580300005803000038400000ea
:1002480066400000580300005803000058030000ef
:1002580058030000580300006a3c000058030000df
:10026800580300005803000058030000580300001a
:10027800580300005803000058030000580300000a
:100288005803000058030000580300009440000081
:10029800c240000058030000580300005803000043
:1002a800580300005803000058030000980200009b
:1002b80058030000580300005803000058030000ca
:1002c80058030000580300005803000058030000ba
:1002d80058030000580300005803000058030000aa
:1002e800580300005803000058030000580300009a
:1002f800580300005803000058030000580300008a
:100308005803000058030000580300005803000079
:100318005803000058030000580300005803000069
:100328005803000058030000580300005803000059
:100338005803000058030000580300005803000049
:100348005803000058030000580300005803000039
:100358005803000058030000580300005803000029
:100368005803000058030000580300005803000019
:100378005803000058030000580300005803000009
:1003880058030000580300005803000058030000f9
:1003980058030000580300005803000058030000e9
:1003a80058030000580300005803000058030000d9
:1003b80058030000580300005803000058030000c9
:1003c80058030000580300005803000058030000b9
:1003d80058030000580300005803000058030000a9
:1003e8005803000058030000580300005803000099
:0803f800580300005803000047
:020000040000fa
:100400004f7221000eff23000e0188000000000043
:1004100000012000200288000c00070000202500b9
:100420000100200011000700000020000000e00093
:10043000020032000000020000000000e427020079
:10044000000000000040da000000fe004440a90067
:10045000e02920000000e00003003200000020003e
:10046000a00188004440a800000006009101880017
:10047000800078000000eb0015003700e2804000ab
:1004800032a0b4009101ba00e280400032a0b40072
:100490009102ba00e280400032a0b4000002eb00fa
:1004a000472bde00f507b200602ce10004003a00a3
:1004b0000059eb008301e900fdff3e000400370016
:1004c0006128e100010032000082eb000400070017
:1004d0001101ba000200e000e8ff3a000000060047
:1004e0003159ba008301e9000c0032002159ba00e9
:1004f0008301e900080032000400e00003003a0034
:10050000e280400032a0b400f5ff370011d9ba00f4
:100510008301e900faff3a008100e800e180400031
:1005200032a0b400000006003227040000000000e2
:10053000801f7800849fbe000600fa008860a90032
:100540005420800062026200e00f5200540032002a
:100550000a24a90005218000041020000482620002
:10056000e00f520021003200740482004822de00b5
:100570007f4262000482fb006622b9008402780098
:100580000464210004824200240798002e02900097
:1005900014029000140798000042eb00044f78000a
:1005a0000c0037001e4078000082fb00e60242008b
:1005b0000408240004824200144278009e02900045
:1005c000844a78001e0290000402e8001407980094
:1005d0001e4fe8002e029000444290009e4f5200b1
:1005e000f0ff3e002104a9002d0037000521800006
:1005f0000420200004826200e00f52002800320034
:10060000a46a210014427800e04f520023003a000f
:10061000640924001442780004407800a2f6b70070
:10062000740924001442780004407800a3f6b7004f
:10063000840924001442780004407800a4f6b7002e
:10064000940924001442780004407800a5f6b7000d
:10065000a40924001442780004407800a6f6b700ec
:10066000b40924001442780004407800a7f6b700cb
:10067000c40924001442780004407800a8f6b700aa
:10068000d40924001442780004407800a9f6b70089
:1006900014c0b30004407800aaf6b7002124a900d2
:1006a0000080fa004f02be004f00780000400600b4
:1006b0000040da000000fe00889fbe008a9fbe0056
:1006c0008c1f7800730007001002200002003b001e
:1006d00010b98800770037008a0062006408e100e2
:1006e00002003a0010b988007f0037006108e1007d
:1006f000fcff32000800be00030478008a040700f3
:1007000001f0a1002403070008f0a6000400370050
:100710000001be0091042400b0fd20003d0107004f
:1007200009f0a70001f0a2006b00370014002000c0
:10073000cc073700f4ff2f00ca0737000001be00c6
:100740003f0007000470a70003f0a1006509b10095
:10075000160032000d0035006828e1000600350063
:10076000f0ff2f00f1ff27000300e00013003b0023
:1007700001002800000005000000400081804800c2
:100780008502e900fcff3a0008003700f88f4200bc
:1007900002003c008000eb00000005008100d10059
:1007a0000080d3008502e800fcff3a000300e0006f
:1007b00002003b0060001000e0801800000006000e
:1007c0000001be001e0007000470a70003f0a10096
:1007d00003f8a30013003a006509b10010003200cd
:1007e000090035006928e1000200350001002800f9
:1007f0000000050000004000818048008502e900fb
:10080000fcff3a0000000600f88f420005003500aa
:100810008100d1000080d3008502e800fcff3a008f
:10082000000006008000eb00000005004f89de009c
:1008300082017800a60737006011b800b4073700be
:10084000c70ade00f107b200f50fb200080032005f
:10085000e1cf4200020032000170a0002400050038
:10086000810f7000010032000408050044000500fb
:10087000810f700002003a00140005008502e900b3
:100880000000400081c04800fcff3b000170a00058
:10089000240005000004be00e9ff07000003be00bd
:1008a0000405be000200be00e5ff0700844f75008e
:1008b000000006000200be006450e10005003600a2
:1008c0006420e100020036000968a30001003a003c
:1008d0000800be000160a0004f0678004f05be0072
:1008e0004f04be0000000600f0ff2f00f1ff2700bc
:1008f000f9ff3700889fbe003400f8000300200095
:10090000a3018800030028008384600001f0a10097
:10091000b2fd200093f423000201500083815800af
:100920000c00310002002000039823000201500057
:1009300083815800030039004c0507003900070087
:10094000f7050700898068003400f9004f04be00f5
:10095000000006008a9fbe008c9fbe00020020009f
:100960000398240000015100818159001e003900c4
:100970003e050700f50607000005eb000100e0005a
:1009800003003d0060001000e08018000a0028000d
:10099000630362006333b8000660010021000700b2
:1009a00000000000080037006d0007000005eb00a4
:1009b000050037001b0007000af0a2000200370004
:1009c000670007000a002800d50507008980680035
:1009d0008a8068004f06be004f05be003400f90053
:1009e0004f04be0000000600700007000778a30057
:1009f000050032000160a000898070001202200012
:100a000012b98800f3ff37000768a3000300320023
:100a1000f0ff2f00f1ff2700f8ff37006000b8005b
:100a2000f6ff37000100e000120032006f034100c2
:100a300010003500809fbe00821f78000002be00bb
:100a400082017800a00407006403410003003d0018
:100a50004300200044a22900020037005300200078
:100a600004a2290073030700cf0178004f02be00e3
:100a70009504070000000600889fbe003400f800bf
:100a800003002000a3018800030028008384600085
:100a900001f0a100b2fd200093f4230002015000f8
:100aa00083815800100031000200200003982300c9
:100ab000020150008381580006003900eb04070052
:100ac00027000700960507003400f9004f04be0018
:100ad0000000060001f82300000020003400f900a7
:100ae0004f04be00000006008a9fbe008c9fbe001f
:100af0000200200003982400000151008181590068
:100b0000b9ff3900d9040700900607000005eb0083
:100b10000100e00003003d0060001000e0801800cc
:100b20000a002800630362006333b8008004eb000e
:100b3000066001000a0007000005eb00a2ff370075
:100b4000b8ff07000af0a2009fff3700040007006b
:100b50000a0028009cff3700b2ff07009aff370009
:100b60000100e0000e0032006f0341000c00350070
:100b70000002be00820178005304070064034100b4
:100b800003003d004300200084a329000200370039
:100b90005300200044a3290026030700000006009c
:100ba00000002000010024000200050027002000b2
:100bb00001f0a70017002000470bde00f60fb2007f
:100bc000040032000643e8000a0032004702b30086
:100bd0000000060001037800f607b200060370006b
:100be00002003a000703b300000006008702b300ca
:100bf0000000060001037800f607b200060370004b
:100c0000020032000770a000000006000760a0008c
:100c10000000060007f82700078361000638e1009e
:100c200004003a00f7072000878361008703710002
:100c300001003a0003f0a200889fbe008a9fbe0018
:100c40008c9fbe00470ade000480a100c71ade00a8
:100c50000580a100070028000785600087856100e6
:100c6000f70f20000720e1009e0032000728e10076
:100c70009c003200010678000400e000b40032005d
:100c8000f7072000878060000170a0000500e000e9
:100c9000c0003200f7072000878161000370a000c8
:100ca000050652000f003a000b50e1000b00320025
:100cb0000308e10002003a000200e1007e00320079
:100cc0000204500083845800040031000001fd003c
:100cd0008101fd008402fd008a05fd006044b8002a
:100ce000210037000520e10005003d000001fd0066
:100cf0008101fd008402fd008a05fd000506520009
:100d00007a60e100050035000170a1004722dd0096
:100d1000848070008a807000630037006044b800ef
:100d2000ef02660007ff2f00070666000500e000df
:100d300006003400f08312008714dd000511de0088
:100d4000071bdd00060171008519de007060e100ff
:100d5000050035000904780082047800030178005a
:100d60008001eb00700656000b50e10003003a00d2
:100d70000200400083804800040037006004140033
:100d8000e0841c0002005800838058000188a30002
:100d9000060032008100d1000080d3008984d30096
:100da0000884d3000402e800270037000178a3007c
:100db00025003a000100e000030032008186cf00e8
:100dc000698656000a0037008c0020000000e00011
:100dd00004003a0009007800880478000004eb0061
:100de000700252008086cf000d0646000c06e90016
:100df0007060e1000600350080007800090078008e
:100e0000880478000004eb0070065600700252005f
:100e10000c00e0000c0034008c08dd00f00316002c
:100e20000703de00868070000c00dd00074bde004b
:100e3000060070008c4cdd000743de0086847400e1
:100e40000c44dd000c0252006120e100200035005e
:100e5000610160000700280087816400f7ff270018
:100e600087836400070374000300e000060032007b
:100e700082037300040032000000e800e0804800b4
:100e80000188a3000e003a00f70f20000720e100c0
:100e90004a003d000170a1004722dd008100720080
:100ea0008a8070000000be004f06be004f05be00e5
:100eb0004f04be00000006006000b800faff3700d3
:100ec0008100d1000080d3000402e800eeff37006b
:100ed0000401780089017400170407008a807000fb
:100ee000f1ff370031ff0700070278000001fd0025
:100ef0008101fd002dff0700870278008503720045
:100f00000778a300040032000001fd008101fd000c
:100f100064030700e4ff3700850362000768a3004d
:100f2000080032000b50e10003003200f0ff2f00f8
:100f3000f1ff2700dcff37000001fd008101fd000b
:100f4000d9ff37000468a300d7ff3200faff37004b
:100f5000f8ff2700888360000b003a000000e000e3
:100f600009003a00830364008283730002003200a8
:100f70000200be00ccff37000b50e100ceff3a006c
:100f80000200be00c8ff370014002000810064008a
:100f90003eff3700f8ff27008883610004003a0015
:100fa0000200e00002003a008c007800beff37002b
:100fb000150020008301640039ff370001f8270085
:100fc0000000200081007500b7ff37000383680030
:100fd0000700280007036300470ade000480a10021
:100fe000c71ade000580a100f70f20000720e100ee
:100ff000420032000728e10040003200889fbe0016
:101000008a9fbe008c1f7800f107b200f307b20080
:101010000400e000640032000170a0000500e00060
:10102000680032000370a00085054200eb07b100a4
:101030000204b8000302b8008484440060854a00ba
:10104000020ab800848444000a854a00030ab800f2
:1010500004054500040033000804d0008984d20050
:101060000a85d2008b05e9006158e1003d0035009a
:10107000021020000901610003082000898161003d
:10108000f70720008783640008867300c84cde00e1
:10109000c853dd00878474004855de000300e0007b
:1010a0000600320082037600040032008904e80062
:1010b00060054d000a88a3000c003a00f70f2000dd
:1010c0000758e10044003d000a70a100c75ddd0043
:1010d0000a8575008a007300090078004f067800c1
:1010e0004f05be004f04be00000006000a05d100f7
:1010f0008984d3008b05e800f0ff3700881f780053
:1011000006047800a9fe0700070278000001fd0030
:101110008101fd00a5fe07008702780085037200ab
:101120000778a300050032000001fd008101fd00e9
:10113000dc0207004f0478000000060085037200ff
:101140000748a30003003200f0ff2f00f1ff270043
:10115000f8ff37000000200001f8270088807000a9
:10116000f4ff3700880178004848dd008081710075
:101170004848de00c850dd0001007000c850de00a5
:10118000060478000b0178006b030700888070006c
:10119000d2ff37000500e0000500320017002000f4
:1011a000b20107009dff370081037000f9ff3a008c
:1011b000860078004f0678004f05be004f04be0041
:1011c0000000050083037100f9ff320027002000b2
:1011d000a601070094ff370001f827008680700001
:1011e000f4ff37000202500083825800610039008a
:1011f00003037100620032000503720059003200df
:101200000300e0005500330017003a000100e00041
:101210004b0032000208e100060031001100090015
:101220004288d800010178008001eb008000eb00cb
:10123000000006006110e100550032000002be000f
:10124000110009008280d800800278000400780034
:10125000110009004288d800010178008001eb00ec
:101260008500780000000600889fbe008a9fbe00af
:101270008c9fbe000386cf000c06e9008c1f78000f
:101280008c19dd00f00216000512de008481710069
:101290000c11dd000003be008004eb00053cde0005
:1012a0008c3bdd000532de00848373000c33dd00ef
:1012b0000700780088007800110009004388d800f2
:1012c0000202b8000306b8008c82420060854e001e
:1012d0008005eb000402530085825b000a055c0078
:1012e0008b855c000b0033008000eb004f0678001c
:1012f0000c21de00700516000a2ddd000a017100c8
:101300008c29de004f06be004f05be004f04be0014
:10131000000006000202420083824a0060054d0080
:10132000e0854d000000e9000b00e000eeff3d000d
:101330000202420083824a000000e900eaff37000f
:101340000000e00012003200110009000280d80005
:10135000010178008000eb00000006000401be00df
:10136000010037006011b800100020008000eb0081
:10137000000006000001be006000b800000006008a
:101380000001be00f0ff2f00f1ff2f00000006005b
:101390006011b80000000600889fbe008a9fbe0052
:1013a0008c9fbe003400f80006002000a6018800d3
:1013b000060028008686600001f0a10006002000db
:1013c00007e0230006035000878358001200310015
:1013d000060020000798230006035000878358006a
:1013e0005c003900a10207000005be0082047800fd
:1013f0000002be0082017800330207004300200093
:10140000449429006d0507000a02be008901780096
:101410002d0207004e0037000600200007102400b0
:101420000603500087835800380031000600200072
:1014300007fd230006035000878358000b0031008e
:101440008a0207000005be008204780062014100a4
:101450002905070000067800ef030700620151002c
:10146000809fbe00821f7800080037007f020700bf
:101470000005be00820478001f05070065064000d5
:10148000e5030700809fbe00821f78000a02be00ad
:1014900089017800070024000600200008002000d1
:1014a000510007000005fd008105fd008204fd00dc
:1014b000cf0178004f02be00cc0207000a02be0036
:1014c00089017800e10107000104780008f8a30011
:1014d0000200320060001000e08018002d000700bc
:1014e00008f8a3000200320060001000e08018003d
:1014f000469529006665b800060345003602be0021
:1015000096017800bb02070011003700060020009a
:1015100007c82400060350008783580013003100d9
:10152000520207000002be00820178000100240080
:101530000000200002002000c40107001500070081
:101540007548260014d52e0003002000a4020700d1
:10155000f30207008d8070003400f9004f06be00d2
:101560004f05be004f04be00000006008ffd0700bf
:101570000778a30003003a00b0fd200091fc23008f
:10158000f4ff37000160a0001602200016b98800a1
:10159000f0ff37000100e0000d003200ef034100d2
:1015a0000b003500809fbe00821f78000002be0045
:1015b00082017800c4010700430020004494290000
:1015c000fe040700cf0178004f02be00be010700f5
:1015d0000000060060001000e080180002003700e4
:1015e00060031300e0831b00889fbe008a9fbe003b
:1015f0008c9fbe00830441000405b800050eb800ae
:101600000501b8008285450003064e00e0864e00c5
:101610000409b8008285450003064e00e0864e00ae
:101620000100e00002003d000406560085865e00d1
:101630000500e00002003d000006560081865e00c5
:101640000d00e000740032000700e0007500320079
:101650006022b8008783d1000683d3008582d3003f
:10166000090054000000e9001b003c003b0035006d
:101670000804e8000a0042008b804a000c014b007d
:101680008d814b0077050700040454000300e0003f
:101690000e003200090028000918e100060032009f
:1016a0000200be00080178004f06be004f05be00d4
:1016b0004f04be00000006000200e000f8ff3a0000
:1016c00003002c000804e800f5ff37006000b800b4
:1016d0000001eb00f4ff37000804e8007e00e100a1
:1016e00001003400e0012000cfecde00ef006000dc
:1016f0000100e0000c003200f08110000155de0016
:101700000359dd0002057500815dde000361dd0027
:10171000828575000166de000369dd000206760041
:1017200081eede00010050004400de006501b800db
:10173000026001000a0042008b804a000c014b004d
:101740008d814b00cfff37000b0042008c804a0098
:101750000d014b0089814b00caff370062844400b1
:101760000000ea00030420000300e100010034004f
:1017700000042000cfbcde00ef0060000a00320051
:10178000f0811000032add00812ade000331dd0034
:10179000828272000133de000339dd000203730030
:1017a00081bbde00010050004400de006501b8008e
:1017b000026001000a0042008b804a000c014b00cd
:1017c0008d814b00afff37000a8042008b004b0039
:1017d0000c814b008d814c00aaff37000a004300aa
:1017e0008b804b000c814c008d814c00a5ff370095
:1017f0000a8043008b804c000c814c008d814c0092
:10180000a0ff37000a8044008b804c000c814c0004
:101810008d814c009bff37000600be000801780058
:10182000a1ff37000c01be000a00be006284440024
:1018300094ff3700e102410002003500e304070095
:1018400000000600e2024100020035001c03070010
:1018500000000600e3024100020035000104070019
:10186000000006005504070000000600889fbe0027
:101870000004eb006138e10016003a000100e000ce
:1018800008003a00c800de004800dd0088002000a3
:101890000100e00003003a00c800de004800dd005f
:1018a000680444008184cf00e984540006003400b9
:1018b0008908dd00f08314008703de008780700054
:1018c0000900dd0009044400610214004f04be0059
:1018d000000006000300e00008003a00c811de0026
:1018e0004811dd00880020000300e00003003a00fa
:1018f000c811de004811dd00680444008384cf0075
:10190000e9845400060034008919dd00f0831400d6
:101910008713de00878171000911dd00090444008e
:10192000e1021400e9ff3700889fbe008a9fbe00d5
:101930008c9fbe001b0020000202be0005866800ce
:1019400006002800060666004709de00f20fb20016
:10195000820032000243e80080003200c729de0026
:10196000f30fb2007d0032000343e8007b00320039
:10197000f107b2000170a000f507b2000570a000e9
:10198000c708dd004903de00868070004700dd00e7
:10199000c72add004923de00868272004722dd006f
:1019a00003055100040350008583580003003100f3
:1019b00000004000818048000a05e9008c1f780083
:1019c0008a9fbe0004005000858058000402420037
:1019d00085824a0000004000818048000005eb003d
:1019e0000004be006033b8000406be000d48e100ec
:1019f00056003100110009004dccd8000c01b80090
:101a00000d02b8008481410060824a008283530045
:101a100003045c0084845c0060055d000a00e00053
:101a200025003a00800578000d40e10049003100b2
:101a30008800780007007800110009004d88d80060
:101a40000c01b8000d02b8008481410060824a0098
:101a50006003110083835b0004045c00e0845c008d
:101a60000900e00021003a004f01be000300e00041
:101a70002b003200e3016000070673008c817100c7
:101a800001003200640070004200de004e5edd00a6
:101a90000c007000c258de0001e0a000a0010700a9
:101aa000cf017800818071004f06be004f05be0057
:101ab0004f04be00000006008c8343000d044c0060
:101ac000e0844c0060054d000000e9000a00e000e1
:101ad000d4ff32008c8343000d044c00e0844c00a2
:101ae00060054d000000e900ceff37000c03430005
:101af0008d834b0060044c00e0844c000000e90042
:101b00000900e000d8ff32000c0343008d834b0036
:101b100060044c00e0844c000000e900d2ff370074
:101b20004200de004e5edd000c007000c258de0098
:101b300001e0a000cf0178000300e000daff3200ee
:101b400060001000e0801800d7ff3700f0ff2f0082
:101b5000aaff3700f0ff2f00b9ff37000404be00d2
:101b600012fc0700870678000004fd008104fd00d8
:101b70000efc0700078366000678a300030032000e
:101b80000960a7000800be002c0037000d78a300f4
:101b9000020032000800be00280037000778a300ca
:101ba00026003a0001f0a10009f0a1000668a30098
:101bb00003003200f1ff2700f0ff2f00baff3700cb
:101bc0000d68a300030032000800be008c80700086
:101bd000b5ff37000768a30007003a000648a300d6
:101be00003003200f1ff2700f0ff2f00aeff3700a7
:101bf0000d48a300030032006000b8008c80700024
:101c0000a9ff37000748a3000400320001f82700ad
:101c1000000020008c807000a3ff370093000700b5
:101c20000004fd008104fd00020578008f0007001c
:101c30000802be008a01780059ff37000160a00049
:101c40001202200012b9880097ff37000100e0005f
:101c5000120032000500e00010003200889fbe0034
:101c60008a9fbe008c9fbe000006eb0001f8a30017
:101c70000300320060001000e08018000cf0a000ab
:101c800005f8a3000300320060021200e0821a008f
:101c90000cf0a2008005eb0041ff37006000b800a7
:101ca000020005000478a300040032000578a300b8
:101cb000030032000168a30001003a000200be00e8
:101cc0000160a00000000600889fbe008a9fbe0041
:101cd0000004be000405be00030141000201e8004b
:101ce0008000eb000a42b8000b43b8008682420035
:101cf00060804b000a4bb800868242000700480013
:101d0000e08048000b4bb800060040008780480088
:101d10000103700002003a000001eb0012003700de
:101d20000900e00002003d000a0050008b805800ce
:101d30000b00e00002003d000800500089805800c0
:101d40008582420000004800818048008101df0058
:101d50000300e000040032008582420000004800d9
:101d6000818048000201e9004f05be004f04be001b
:101d70000000060001f8a3001d003a004709de003c
:101d8000f40f20000410e100260032000200e00001
:101d90002c003200f107b200c708dd004902de0066
:101da000848070004700dd0001e0a000f207b10070
:101db0002e010700f207b000040420008401600037
:101dc0004700de00490add0004007000c708de009d
:101dd0000300e0000200320061004000e0804800a3
:101de000f107b2004711dd0082807000000006009c
:101df000f4ff2700048260008002720001003a00b4
:101e00000000060006f827000620e1001200350059
:101e10008102630006826a00040270000e00320034
:101e20000600370004f827000482680003003a0027
:101e30000400200000026a000b0032000160a000d4
:101e4000000006000082700001003a000000060059
:101e500006000700d6ff37001202200012b98800e2
:101e6000f0ff2f00f1ff2700000006004f0ade0000
:101e70004709de00f107b200f20fb2000b0032009a
:101e8000f207b1000170a000c708dd00c901de0043
:101e9000838070004700dd000400a60000000600fb
:101ea00060001000e080180000000600810f700044
:101eb00001003a00000006008182cf000500e0002a
:101ec00010003e008082cf00ee8242007028e100c8
:101ed0000400390007003e00800078000000eb009d
:101ee0000e003700708312008600de000500dd0062
:101ef0000a003700708352008600dd000000eb000e
:101f000006003700e28252008508dd00708312006f
:101f10000603de00868070000500dd007507b00056
:101f20000501ea000400a6000000060060001000a1
:101f3000e0801800000006000100e00026003200ea
:101f4000610111007810e10023003c006022b8001c
:101f50007010e10004003500800278000100780074
:101f60008000eb00700151000200e0000900340025
:101f700070031100062add00822ade008603dd00e0
:101f8000878272000200de00860bdd000700700011
:101f90008208de0084817100f4ff27000482620061
:101fa0008481710004002800848262006102600064
:101fb00005f0a60000000600048271000700320050
:101fc0000000e800e0804800000006000002be00bb
:101fd0006000b800efff37006000b80000000600a6
:101fe00060001000e080180002003700600212005c
:101ff000e0821a000100e0003f0032000500e0002e
:1020000039003200889fbe008a9fbe00820378009c
:102010008304510004003d000002fd008102fd0028
:102020008904ea00830378000101780080007800c9
:102030000000eb0005037800840278000002eb004a
:1020400006056900070035000281d1008180d300b8
:102050000080d3000683d1008582d3000482d300a0
:102060008703e8007048e100060035007f48e10082
:1020700029003c0005027800860278004fb3de009c
:10208000f08454000900e000080032000922de005c
:10209000708514008a2ddd000b027200892ade0093
:1020a0008a35dd008b82720009b3de000400400037
:1020b000858048000601490083020700838353009e
:1020c0000200e000090032000b0028000b10e100c4
:1020d0000c003200010078008200780007017800cf
:1020e0004f05be004f04be00000006006000b800af
:1020f0000001eb00faff37000400be000301780086
:10210000000006000100e000f2ff3a0002002c008f
:102110008703e800efff3700f9012000d5ff370003
:1021200081017000270032008002eb0001f8a3005b
:102130000300320060001000e0801800150020004d
:10214000f40720000202420020003400f7032000c0
:1021500087036000060420000003630002082000db
:10216000000161004700de00c909dd000080710048
:10217000c708de000600e000080032008703710097
:10218000060032001000b0000180b0000188a300fa
:1021900002003200c108de000402e800f107b200cc
:1021a000f30f20000320e10003003d004722dd0083
:1021b000810072002900370001f827000000eb00c1
:1021c000260037006000b800000006006802120018
:1021d0007f20e100020034006000b8001f003700db
:1021e0006011b8007020e100040035008001780023
:1021f000010078008000eb00700252000400e00053
:1022000009003400f00312000719dd008419de0014
:102210000703dd00868171000400de00070bdd008e
:10222000060070008408de00f7ff27008383630048
:1022300087037100060028000303630007003200d3
:102240000700e00003003a006101600002817300b2
:10225000020032001000b0000180b0000500a600ae
:102260000000060001f0a0000000060081037000dd
:1022700068003200889fbe008a9fbe008c9fbe000f
:102280003400f80008002000a80188000208a3001c
:10229000030032000000d0008180d2000201e9007a
:1022a00081017800800278000002eb00821f780034
:1022b0004a1cde000801b100099f290069417c0029
:1022c0000281fb000214b8004644dd000340e10037
:1022d000010036000201e9004111dd001200b300e7
:1022e0000214b8004444dd000340e1000100360060
:1022f0000201e9004111dd001200b3000214b80030
:102300004244dd000340e100010036000201e90023
:102310004111dd001200b3000214b8000340e100d7
:10232000010036000201e9000214b80008865100dd
:102330004763dd00492cde00080373008204780047
:102340004834de000940e1002e0031001100090090
:102350000983d8004811dd00000171000214b800a3
:102360000006eb0084067800088552008985590034
:10237000040031000201e9000214b800088552008f
:1023800089855900820478000b04d1008a83d30028
:102390000d83d3000938e1001c0031001100090051
:1023a00049bbd8008002eb000003b8000204b8006b
:1023b0000804440089844c00e0824a0087034400fa
:1023c00060824c00e0814a000603560087835e006d
:1023d00004025d0083815d00010031000000e9001e
:1023e0008200d1000080d3004f0178004191de00cf
:1023f0003400f9004f06be004f05be004f04be007a
:1024000000000600f00f2000d2ff3700f0ff2f0081
:10241000e4ff3700020005000003eb008101df004c
:102420008301ea006f18e1000f0032000300e000b2
:10243000060032008308dd00708211008402de0095
:10244000858070000300dd00030343000100e0000d
:1024500014003200040028000408e10013003200d8
:102460007e011300000006008100d1008080d300af
:102470004f00dd00f60020008101df008301ea004b
:102480006f18e100e9ff3a008100d1008080d3009d
:102490000000eb00e60120008101df008301ea007b
:1024a000e2ff37006000b800020005000000e00015
:1024b000ebff3a0001002c000603e900e8ff3700bb
:1024c0006218e1001b003500889fbe008a9fbe0095
:1024d0008c9fbe008301e9000004be000205be001f
:1024e000040678003c00be000801be009a01070007
:1024f0003c004100bc8049008b05e900faff3c002c
:102500000103df008606ea00050034008d08dd00c7
:10251000708216008402de00858070000d00dd00f0
:10252000060178004f06be004f05be004f04be00f6
:10253000000006000300e00002003a006000b8005e
:10254000020005003400be0002000500889fbe00a6
:102550008a9fbe008c9fbe000006be0082057800e8
:10256000741b2c00c5172500f3ff2f00d6fd0700b4
:10257000e1000700809fbe0081017000360032003c
:10258000e7015000608258000d0031000000e900b2
:10259000899a29006c00b800890440000c00be0034
:1025a0000b0178003902be00b90178008ffe0700e8
:1025b0003902be00b90178008cfe07002100370007
:1025c00095ff070014d52e00754826000300200053
:1025d0000c03be000b0478000006be0082057800e4
:1025e000fcfb0700d3ff2f00838145000218e100a8
:1025f000140034000003be00020478000c00be008a
:102600000b01780094462800152d2400e3fd2f00cf
:10261000f0fb0700e3fd2f00838145000218e10075
:10262000080034000003be00020478000c00be0065
:102630000b017800b4282600654c2400f3fb2f0022
:10264000e4fb07004f02be004f06be004f05be0070
:102650004f04be00000006000c00be000b01780015
:10266000f8ff3700889fbe008a9fbe00841f780055
:1026700088f807004f00780011003300f0ff2f00aa
:10268000838f6c0006003b00040565000a00a7006c
:102690000800370009f0a6001000200008003700ed
:1026a000820f5400838f5c0003003900100020006b
:1026b00001003e000000200009f0a7000000ea0031
:1026c0004f05be004f04be000000e0000000060001
:1026d000881f7800030478000300e00007003d0035
:1026e00060001000e080180060011900e08119000e
:1026f00002003b0001f02d0003003700040007003a
:1027000008f0a70001f0a0004f04780000000600c8
:10271000889fbe008a9fbe00008270000402710084
:1027200004827100260032000004be000200be00d8
:102730006011b8006b092000950220000182cf00d3
:102740000a0039000541b1000082cf0007003900be
:102750000541b1000982cf00040039000541b100f4
:102760000882cf00010039000541b1000542520046
:10277000120032000a003b00828171006101640096
:102780008100d1000080d3008984d3000884d30065
:102790008b05e8000442e800f7ff3a000700370025
:1027a0000804440089844c000000480081804800ef
:1027b0008b05e9000442e900f9ff3a000300070035
:1027c0004f05be004f04be0000000600810020003f
:1027d000618055000b003d000b00200061fe2f00c2
:1027e0000100e1001d00340082817100610164007c
:1027f0008904d1000884d3000000e800faff3a0001
:10280000710020006100640003007000020060009d
:102810000900320061044400e0844c000988a500ee
:10282000050032008b05e8006808e10002003a006c
:102830008904d1000884d300f20f20000258e1007f
:1028400005003d00c75ddd00f907b2008980750015
:1028500008007800000006000bf827008b007800c5
:10286000000005006218e1001d003500889fbe00d1
:102870008a9fbe008c9fbe008301e9000004be0059
:102880000205be00040678003c00be000801be0040
:10289000b10007008381d1000281d3003c004100d8
:1028a000bc8049008b05e900f8ff3c000103df0014
:1028b0008606ea00050034008d08dd0070821600ef
:1028c0008402de00858070000d00dd0006017800c6
:1028d0004f06be004f05be004f04be0000000600bc
:1028e0000300e00002003a006000b80002000500aa
:1028f0003400be00020005000100e00021003200ab
:102900008201e8002b0035007e0211001e00340019
:102910006011b8007020e1000400350080017800eb
:1029200001007800cf88de00700252000400e00051
:102930000700320003017800700312008601dd00f9
:102940000400de00860bdd00070070008488de00d6
:10295000e10260000600280003036300f7ff270080
:1029600083836300828373000600e0000500320069
:10297000078172000200e0000200320061004000a6
:10298000e0804800000006007e10e10001003a00ef
:10299000000006000100e00003003500f1ff270001
:1029a000f0ff2f00000006000100280000002000ba
:1029b000000006006000b800000006006218e10098
:1029c0003b003500889fbe008a9fbe008c9fbe00e2
:1029d0008301e9000004be000205be000406780081
:1029e000620545000a05ea003c00be007050e100a7
:1029f000170035000d0032007f50e1000100340067
:102a0000fa012000f00655000801be005200070040
:102a10000d99de00cf99de003c004100bc804900ea
:102a20008b05e900f8ff3c00140037000801be00e8
:102a30004900070003017800cf99de003c00410007
:102a4000bc8049008b05e900f8ff3c000b00370013
:102a5000f00615000801be003f0007000a11de0065
:102a60008d1add00050171008a99de003c004100ed
:102a7000bc8049008b05e900f6ff3c000103df0044
:102a80000605ea00050034008a08dd007002150022
:102a90008402de00858070000a00dd0006017800f7
:102aa0004f06be004f05be004f04be0000000600ea
:102ab0000300e00002003a006000b80002000500d8
:102ac0003400be00020005008001eb000202df00be
:102ad0000402ea006f20e10010003a000201d10078
:102ae0000181d3008080d3004f00dd00f30020007f
:102af0000202df000402ea006f20e10007003a0052
:102b00000201d1000181d3008080d3000000eb00de
:102b1000e30120000202df000402ea000400e000fa
:102b200009003200f00212000411dd00050bde0086
:102b3000060171008408dd000503de008680700058
:102b40000400dd00848141000200e0000100320049
:102b50000000060003000500889fbe008a9fbe009b
:102b60008c1f78000002be000203be000620b800e1
:102b7000062db8008a80400060814d000724b8000f
:102b8000072db8008a84440060864d00810044000f
:102b900002814c00e0014e000700e0000800350013
:102ba0000500e00002003d00060151008781590048
:102bb0004f0678004f05be004f04be00000006001f
:102bc0000401510085815900f5ff37006218e100ca
:102bd0001e003500889fbe008a9fbe008c9fbe00ed
:102be0008301e9000004be000205be00040678006f
:102bf0003c00be000801be00d7ff07008100d000e6
:102c00000281d2008381d2003c004100bc80490097
:102c10008b05e900f7ff3c000103df008606ea00b0
:102c2000050034008d08dd00708216008402de008d
:102c3000858070000d00dd00060178004f06be00a3
:102c40004f05be004f04be00000006000300e00078
:102c500002003a006000b800020005003400be0027
:102c6000020005000002eb008302df008502ea009b
:102c70006f28e10023003a008301d1008281d30054
:102c80000181d3008080d3004f00dd00f4002000dc
:102c90008302df008502ea006f28e10019003a0094
:102ca0008301d1008281d3000181d3008080d300d1
:102cb0000000eb00e40120008302df008502ea004f
:102cc0006f28e1000f003a008301d1008281d30018
:102cd0000181d3008000eb00d40220008302df00da
:102ce0008502ea006f28e10006003a008301d10066
:102cf0008281d3000001eb00c40320008302df00c7
:102d00008502ea000500e0000c003200708312002a
:102d10008519dd008613de00878171000511dd0055
:102d2000860bde00070171008508dd008603de00ea
:102d3000878070000500dd00050242000300e0000e
:0c2d400001003200000006000400050045
:020000040000fa
:102d4c000000000000000000000000000000000077
:102d5c000000000000000000000000000000000067
:102d6c000000000000000000000000000000000057
:102d7c000000000000000000000000000000000047
:1031fc000401000010010000120100001e0100007b
:10320c0020010000020100000c0100000e01000072
:10321c001a0100001c010000000100000601000062
:10322c000a010000140100001801000094000000c5
:10323c00940000009400000096000000960000002e
:10324c0008000000800000000001000000080000e1
:10325c0000100000840100008a01000090010000b1
:10326c009601000080010000860100008c01000026
:0c327c00920100000003000006080000a2
:020000040000fa
:103288001c6c00000cf70000476b0000cc0c000021
:10329800dbaa0000aaea00000000000000400000cd
:1032a800000000000000000000000000e4d700005b
:1032b8006d7d0000fdff0000159c0000b176000048
:1032c800feff00008c3e00005e520000ffff000081
:1032d80051ed000087640000ffff00005ef1000070
:1032e800b1720000ffff00004a2f0000cc7d0000f3
:1032f800ffff00004b860000db46000000000000d6
:10330800ad5d0000f04f00000000000054320000e6
:10331800da5400000000000054cc0000e55700001b
:10332800000000008e210000f65900000000000097
:10333800ee150000735b000000000000aa7e00008c
:10334800925c00000000000051ed0000876400005e
:103358000000000069840000d1420000deff000088
:1033680051ed00008764000001000000698400003e
:10337800d1420000dfff0000fcf10000654b0000b7
:103388000200000069a4000043660000e3ff00009b
:1033980051ed00008764000002000000698400000d
:1033a800d1420000e0ff0000a5e80000a97d000070
:1033b8000200000060790000e1540000e2ff000014
:1033c800fcf10000654b00000300000069a4000048
:1033d80043660000e4ff0000101000001111000017
:1033e800121200001313000013140000141500003b
:1033f8001515000016160000161700001717000014
:103408001818000018190000191900001a1a0000ed
:103418001a1b00001b1b00001b1c00001c1c0000ca
:103428001d1d00001d1d00001e1e00001e1e0000a8
:103438001f1f00001f1f0000690b00000000000094
:10344800ddbf0000fcff0000858800008800000048
:103458005555000055f50000000000000040000030
:103468006e66000000000000503f0000e9ff000009
:103478008aaa0000aa0200000100000000e0000083
:083488000000000000400000fc
:020000040000fa
:103490001000fa00889fbe00800478002107980081
:1034a0003207980043079800540798006507980072
:1034b000760798002e029000be029000d2cc2c001d
:1034c000c3dc23000400be0017f907000002be00a1
:1034d0000400be0099f407000002be000442780018
:1034e000044f78004e029000de029000d2cc2c00f7
:1034f000c3dc23000400be000bf907000002be007d
:103500000400be008df407000002be0004427800f3
:10351000144798006e029000fe02900018c0b3009d
:103520006011b8000400be0082f4070000027800b9
:10353000e00f520001003d000044eb00e04f54005a
:10354000120032006e029000fe02900002fd200088
:1035500093ec23000400be00b7f507000002be0094
:1035600002fd200093f423000400be00eef80700e3
:103570000002be000400be0070f407000002be009e
:103580000442780024479800110037006e02900032
:10359000fe02900002fd200093ec23000400be0018
:1035a0009cf507000002be0002fd200093f42300fa
:1035b0000400be00dcf807000002be000400be00ec
:1035c0005ef407000002be00044278002447980021
:1035d0000e02780089027800944a78008502e8009b
:1035e0000402e800944a78008502e8000402e8003a
:1035f000944a78008502e8000402e8000900780097
:103600004f04be000080fa00000006001000fa001f
:10361000881f7800000478006107980072079800fe
:103620004e4a90000402fb00cfa2de000400be0060
:103630007ef407000002be00d2cc2c00c3dc2300c5
:103640000400be0061f607000002be006011b80071
:103650000400be0078f507000002be00048fbe0023
:103660005e4a90000402fb00cfa2de000400be0010
:103670006ef407000002be00d2cc2c00c3dc230095
:103680000400be0051f607000002be006011b80041
:103690000400be0068f507000002be002407980081
:1036a000350798006e4a90000402fb00cfa2de00ae
:1036b0000400be005df407000002be0002fd200011
:1036c000930424000400be0040f607000002be0080
:1036d00002002000030824000400be0092f8070046
:1036e0000002be0044079800550798000e027800bb
:1036f00088027800b41a7800a4127800e4824200ac
:1037000064024200b41a7800a4127800e4824200f5
:1037100064024200b41a7800a4127800e4824200e5
:1037200064024200080078004f0478000080fa002c
:10373000000006000c00fa00889fbe00000f780011
:103740001107980022079800330798004407980053
:10375000550798007eb397008ebb97001e02be00ef
:103760000401be000600be002af507000002be00ec
:103770000404be001ebb9700aebb97002e02900053
:10378000be0290000401be000600be0021f5070045
:103790000002be000801be000400be00c6f3070020
:1037a0000002be000400be00be1a07000002be00f8
:1037b0000400be004f04be000080fa0000000600b6
:1037c0000200fa000002eb00040f78001f0037002f
:1037d0001e0278006622b90084027800048020006e
:1037e0000482420005532700050a78001e02780073
:1037f0006622b9008402780024802000848242007e
:103800000042eb00844a7800646a29001e024200ec
:10381000144378001e0278006622b9008402780002
:103820002480200004824200164298001e02780084
:103830006622b9008402780044802000048242009d
:103840008082eb00050a78001e0fe8007425200036
:103850009e027800848f5200ddff36000080fa005f
:10386000000006000200fa00000f78001e02780037
:103870006622b900840278002480200084824200fd
:1038800014c0b300944298000080fa0000000600c3
:103890002600fa00600f9800710f98000217980038
:1038a00013179800241798007e0a9000cfa2de001c
:1038b0000400be00ddf307000002be00040f980004
:1038c000150f98000e129000cfa2de000400be007b
:1038d000d6f307000002be00240f9800350f9800b1
:1038e000ec0347008e0890001e099000ae0990007e
:1038f0003e0a9000ce0a90005e0b90000700780010
:10390000e3fe07004e6290000402fb006123b90051
:1039100034002000050020000602420087824a0091
:103920007600200007002000860f5200878f5a0083
:1039300051003e0004600100340037003c003700b5
:1039400044003700040037000c0037001400370033
:103950001c003700240037000082eb002407980089
:103960003400200034079800e4ff2f00440798003b
:1039700024002000540798003f0037000082eb002d
:103980002407980034002000340798000082eb00e0
:103990004407980034002000540798003600370090
:1039a000e4ff2f002407980024002000340798002b
:1039b0000082eb0044079800340020005407980070
:1039c0002d003700d4ff2f0024079800140020009a
:1039d000340798000082eb00440798003400200070
:1039e0005407980024003700d4ff2f0024079800c4
:1039f0001400200034079800e4ff2f0044079800cb
:103a000024002000540798001b003700d4ff2f002b
:103a1000240798001400200034079800d4ff2f00da
:103a20004407980014002000540798001200370043
:103a3000e4ff2f002407980024002000340798009a
:103a4000d4ff2f004407980014002000540798006a
:103a5000090037000082eb002407980034002000a2
:103a600034079800d4ff2f0044079800140020006a
:103a700054079800000000002e029000040f780008
:103a8000180037004e02900014079800100037000d
:103a90004e4a90000402fb007422b90084027800b0
:103aa0005e4a90000402fb00048242006622b900d4
:103ab00084027800248020008482420014c0b30075
:103ac000944298001e0290000402e8001407980037
:103ad0009e0290005e029000848f5200ecff340042
:103ae0001e0fe8003e0290009e027800848f520074
:103af000e4ff34000080fa00000006001800fa001d
:103b0000200f9800310f9800ae0a90004401200069
:103b1000110009008402d8000002780074079800a0
:103b2000fe029000c4fe2f0004aab90084027800af
:103b30002e0a900004824200040f98000002eb005d
:103b4000640798007e029000e00f520003003a00e4
:103b50000002eb00040f7800020037000082eb0047
:103b6000040f78007e029000fd0f520003003a001f
:103b70000002eb0014079800020037001400200038
:103b8000140798000e0a9000e00f520003003a005c
:103b90000002eb0024079800020037000082eb00cf
:103ba000240798000e0a9000f30f520003003a0019
:103bb0000002eb00340798000200370014002000d8
:103bc000340798001e027800440798002700370049
:103bd000ae029000550798001d0037004e0290007d
:103be0007422b900840278002e0a90008482420078
:103bf0005e02900004824200140f98001e0a90009a
:103c00006622b900040278008482e8000480200063
:103c10000482420014429000e04f520009003a0032
:103c20006e02900004024200be0a9000048242002c
:103c30001e089000000a78006e0290000402e8005e
:103c4000640798005e0290000402e80054079800a0
:103c5000de0290003e029000848f5200dfff3400ad
:103c60004e0290000402e80044079800ce02900043
:103c70001e029000848f5200d5ff34006e02900027
:103c8000040078000080fa00000006000400fa003a
:103c90000002eb00040f7800010037001e0fe8005f
:103ca0001e0278006622b900040278008482e800cf
:103cb000048020000482420014429000e04f520031
:103cc00004003200742520009e027800848f520088
:103cd000f2ff3400742520009e027800848f520089
:103ce000020034000082eb00240037001e0278003e
:103cf000140798001c0037001e0290006622b900cd
:103d0000040278008482e8000480200004824200db
:103d100014429000e04f520010003a001e02900042
:103d20006622b900840278000480200004824200e8
:103d3000140378001e0278006622b900840278001d
:103d4000048020000482420014027800840f530093
:103d500002003d001e029000040f78001e02900039
:103d60000402e800140798009e02900074252000c9
:103d7000848f5200e0ff34001e02780004007800b7
:103d80000080fa00000006000400fa00000f78002e
:103d9000110798001e029000e00f5200110032003f
:103da000e10f52001c003200e10f42002c003a00eb
:103db0001e027800e00f520006003200e10f5200b0
:103dc00006003200e10f420020003a00d4ff2f002d
:103dd0002400370044002000220037003400200077
:103de000200037001e027800e00f5200060032006b
:103df000e10f520006003200e10f420015003a00c8
:103e0000e4ff2f0017003700f407200015003700eb
:103e100024002000130037001e027800e00f52003b
:103e200006003200e10f520006003200e10f4200ae
:103e30000a003a000082eb000a0037000002eb00a3
:103e400008003700140020000600370000000000c2
:103e500003003700000000000100370000000000f0
:103e6000f4072000040078000080fa00000006003b
:103e70001200fa006007980071079800020f98007e
:103e8000fe02900044012000110009008402d800c5
:103e900000027800140798009e029000c4fe2f00d4
:103ea00004aab900840278007e02900004824200d5
:103eb00024079800ee029000440120001100090040
:103ec0008402d8000002780034079800be029000f7
:103ed000c4fe2f0004aab900840278006e0290008c
:103ee0000482420044079800be0290001e02900027
:103ef000848252004e0390002e0290000402530070
:103f000085007800040078009fff07000002780019
:103f1000540798009e0290003e02900004825200d6
:103f2000e00f5200040034009e0290003e02900018
:103f300084825200040037001e0290008402ea00ce
:103f40003e029000848252002e0390004e029000a8
:103f500004025300e00f5200040034002e039000ce
:103f60004e02900004025300040037002e0290001d
:103f70000403ea004e02900004025300048242004f
:103f800004024200040f78001e027800e30f520082
:103f90000200340034002000040f78007e029000fc
:103fa0006622b90084027800048020000482420066
:103fb000140278001e0f42007e0290006622b900b3
:103fc000040278008482e800048020000482420019
:103fd000144278008402fb005e029000848f52003d
:103fe000010032001e0fe800ee0290000e0a900061
:103ff000848f52000c003a000e0a90006622b9002d
:10400000040278008482e8000480200004824200d8
:10401000144278008402fb005e029000848f5200fc
:10402000010032001e0fe8006e0290006622b90007
:104030008402780004802000048242001402780088
:104040009e0f520013003c006e0290006622b900e1
:104050008402780004802000048242001402780068
:104060009e0f520020003a000e0a90006622b9000e
:10407000040278008482e800048020000482420068
:10408000144278008402fb005e029000848f52008c
:1040900015003a006e0290006622b9008402780092
:1040a00004802000048242001e0a78006e02900004
:1040b0006622b90084027800448020000482420015
:1040c000fe029000050a78005e029000044378002a
:1040d0006e0290006622b9008402780024802000dd
:1040e00004824200064a78000080fa0000000600c0
:1040f0003200fa0010179800211798003217980024
:104100004317980054179800651798007617980081
:10411000071f9800aafd07004e6a9000e04f52006a
:10412000060032009e1190002e1290006e1090003a
:10413000fe1090000e199000d5fd07002e62900031
:104140000402fb007422b900840278003e629000f1
:104150000402fb00048242006622b90004027800d7
:104160008482e8000480200004824200144290000f
:10417000e14f520002003a00d4ff2f003501370012
:104180006e6290000402fb007422b9008402780081
:104190007e6290000402fb00048242006622b900a5
:1041a000040278008482e800048020000482420037
:1041b00014429000e14f520002003a00c4ff2f0069
:1041c00024013700ae6290006e62900084cf5200ee
:1041d00014003a00be6290007e62900084cf5200cc
:1041e00010003a002e629000de129000844a78009f
:1041f0003e629000de129000944298005e129000a1
:10420000e30242006e629000944298005e129000b9
:10421000e30242007e629000944298002400200055
:104220000c0137002e6290000402fb007422b900da
:10423000840278003e6290000402fb000482420087
:10424000340798006e6290000402fb007422b900eb
:10425000840278007e6290000402fb000482420027
:10426000440798003e0290006622b900840278005c
:1042700004802000048242008002eb00050a7800de
:104280003e009000000f7800220037001e007800ea
:1042900074fd07006e024700840078001e0078005d
:1042a00016fe070000027800240798000002eb00c9
:1042b000140798000b0037001e0290000402420011
:1042c00004024700740290004e0190009e007800a6
:1042d00004007800e6fe07001e0290000402e800d9
:1042e000140798009e0290002e029000848f5200c6
:1042f000f1ff350065fe070000027800040f78002a
:104300001e027800e10f420002003a00b4ff2f00c5
:10431000d00037004e0290009e027800848f520039
:10432000daff3a009e0278004401200011000900e3
:104330008402d8000002780054079800de02900042
:10434000c4fe2f0004aab900040278001e02420035
:10435000640798005e02900004427800de1290002c
:10436000844a78006e02900004427800de129000c9
:10437000944298001e0278006622b9000402780078
:104380008482e80004802000048242001442780005
:10439000de129000a4429800140020002407980028
:1043a000380037001e0278006622b9000402780047
:1043b000e40242000480200004824200140f7800ce
:1043c0001e027800e10f420002003a00b4ff2f0005
:1043d000a00037009e02780044012000110009006f
:1043e0008402d8000002780054079800de02900092
:1043f000c4fe2f0004aab900040278001e02420085
:10440000640798002e0290006322b900040278002d
:10441000de129000848242005e0290000442780026
:10442000844a78002e0290006322b90004027800ca
:10443000de129000848242006e02900004427800f6
:10444000944298002e0290006322b9000402780082
:10445000de129000048342001e0278006622b9003a
:10446000040278008482e800048020000482420074
:1044700014427800244398002e0290000402e800c1
:10448000240798003e0290009e027800848f52001c
:10449000c4ff3a000002eb001407980063003700e5
:1044a0001e0290006322b90004027800de12900020
:1044b0000482420014427800645f98001e0290005b
:1044c0006322b90004027800de12900004824200e8
:1044d00014429000745f98001e0290006322b9009d
:1044e00004027800de129000048242002442900010
:1044f000046798001e0290006322b900040278004d
:10450000de12900004834200ae0290001e02900072
:10451000048252000402e9006322b9000402780018
:10452000de1290000482420014427800044b7800ae
:104530001e0290006322b90004027800de1290008f
:1045400004834200ae0290001e02900004825200da
:104550000402e9006322b90004027800de12900030
:104560000482420014429000144398001e029000fe
:104570006322b90004027800de1290000483420036
:10458000ae0290001e029000048252000402e90074
:104590006322b90004027800de1290000482420017
:1045a0002442900024439800ae0290001e02900026
:1045b000048252000402e9006322b9000402780078
:1045c000de129000848242006e5a9000844a780085
:1045d000ae0290001e029000048252000402e90024
:1045e0006322b90004027800de1290008482420047
:1045f0007e5a900094429800ae0290001e029000f5
:10460000048252000402e9006322b9000402780027
:10461000de129000848242000e629000a442980054
:104620001e0290000402e80014079800ae029000f9
:1046300024002000110009008402d8000002780044
:10464000840278001e029000848f520094ff3c0088
:104650002e029000040078000080fa00000006009e
:104660002400fa00881f780040079800510798003e
:104670006207980073079800040f9800150f9800c0
:10468000260f9800370f98004e029000de0290002f
:104690006eb39700048bbe006e029000fe02900085
:1046a0006eb397002403980035039800140020008f
:1046b000140798003e0a90006302420014427800fa
:1046c0008402fb003e0a9000144278000402fb00c2
:1046d000848252003e0a900063024200144290001d
:1046e0000403fb003e0a9000144290000402fb0009
:1046f000040253008500780004007800a2fd070042
:10470000000278002407980014002000040f7800ad
:10471000600037001e0278006322b90004027800ae
:10472000be0a900004824200144278000403fb0099
:104730001e02e9006322b90004027800be0a90005c
:1047400004824200144278000402fb000403530078
:104750001e0278006322b90004027800be0a9000ad
:1047600004824200144290008403fb001e02e90010
:104770006322b90004027800be0a9000048242005d
:10478000144290000402fb0004825300860078006b
:10479000040078007cfd07000002780034079800d0
:1047a0001e0278006322b90004027800be0a90005d
:1047b00004824200244290008402fb002e029000fa
:1047c000848f5200320032001e0290006c22b90029
:1047d00004027800eeb29700048442001e02e90051
:1047e0006322b90004027800be0a900004824200ed
:1047f00078034700944278008583fb009442900040
:104800008582fb00c82add00878372008002eb00ee
:1048100087027800244290000480fb000002eb0035
:10482000f70f20008703600000f02f0000026200f5
:104830000702720085007800040178000600780005
:1048400072fb07007802470088027800b41a7800eb
:10485000a4127800e482420064024200b41a780094
:10486000a4127800e482420064024200b41a780084
:10487000a4127800e4824200640242001e0290000a
:104880000402e800140798003e02900024079800f4
:104890001e0fe8002e0a90000402e9009e0f52004d
:1048a0009cff3e006eb297006c024200eeb2970091
:1048b0001403be00869fbe00640242001403be00c3
:1048c000869fbe00640242001403be00869fbe00a5
:1048d00064024200150078009500900025019000c8
:1048e000b501900045029000d502900091fb0700b1
:1048f000ec8757000002be006eb397004403980097
:10490000550398001e0290006c22b9000402780042
:10491000eeb29700048342007eb297008eba9700f1
:10492000048bbe001e0290006c22b90004027800c5
:10493000eeb29700048342001eba9700aeba970009
:1049400024039800350398001e0290006c22b900e1
:1049500004027800eeb29700048342003eba97004a
:10496000ceba970044039800550398001e029000a9
:104970000402e800140798001e0290006c22b9009f
:104980000402780078025200eeb2970004844200dc
:104990001e0290000402e9006c22b90004027800b3
:1049a000eeb29700048342001e0290006c22b90010
:1049b0000402780078025200eeb29700848242002e
:1049c000060278001403be00869fbe006402420007
:1049d0001403be00869fbe00640242001403be00a2
:1049e000869fbe006402420015007800950090008a
:1049f00025019000b501900045029000d50290007d
:104a00004cfb0700ec8757000002be0044049800ee
:104a1000550498001e029000040078004f047800ae
:104a20000080fa00000006001400fa00000f980051
:104a3000110f98000e0a9000cfa2de000400be0005
:104a40007aef07000002be0024079800350798009f
:104a50001e0a9000cfa2de000400be0073ef070024
:104a60000002be004407980055079800ae00900071
:104a70003e019000ce0190005e029000ee02900098
:104a80007e0390000e00780081fa07001e42780035
:104a90000402fb007422b900840278001e429000d8
:104aa0000402fb0004824200656a290065427a0024
:104ab0000414a2000482fb000402e9004f22de007d
:104ac000040078000080fa00000006006e02fa0080
:104ad000881f7800072620008e834300800b780013
:104ae00091039800a2039800b3039800c4039800b0
:104af000d503980066379a00042620000e02420073
:104b00001402be0018c0b3006011b8000400be005b
:104b100006ef070000027800e00f520001003500a8
:104b20000044eb00e04f54002b003a000426200024
:104b30000e0242001402be0018c0b30002002000a2
:104b4000030424000400be00faee0700000278000f
:104b5000e00f520001003c000044eb00e04f540025
:104b60001d003a00042620000e024200b40290000c
:104b70002402900018c0b3006011b8000400be0009
:104b8000eaee070000027800e00f52000100350055
:104b90000044eb00e04f54000f003a0004262000d0
:104ba0000e024200b40290002402900018c0b3002c
:104bb00002002000030024000400be00ddee070018
:104bc00000027800e00f520001003c000044eb00be
:104bd000e04f5400020032000082eb009d003700dd
:104be0007eb297008eba970018c0b3006011b8006b
:104bf0000400be00cdee070000027800e00f520076
:104c0000010035000044eb00e04f540026003a005c
:104c10007eb297008eba970018c0b3000200200041
:104c2000030424000400be00c2ee07000002780066
:104c3000e00f520001003c000044eb00e04f540044
:104c400019003a001eba9700aeba970018c0b30018
:104c50006011b8000400be00b4ee07000002780046
:104c6000e00f5200010035000044eb00e04f54001b
:104c70000d003a001eba9700aeba970018c0b300f4
:104c800002002000030024000400be00a9ee07007b
:104c900000027800e00f520001003c000044eb00ed
:104ca000e04f540002003200e4ff2f00690037009b
:104cb000042620000e0242001403be007eb29700bc
:104cc0008eba97000401be000600be0097ee0700f2
:104cd00000027800e00f52000e003a000426200087
:104ce0000e02420024039000b40390001eba970005
:104cf000aeba97000401be000600be008bee0700ae
:104d000000027800e00f520002003a000002eb00bf
:104d1000500037008e83e800062620000e03430073
:104d20009600780016019000a601900036029000cf
:104d3000c60290005603900007007800d4f90700df
:104d4000e5034700feb097000eb997009eb99700a3
:104d50002eba9700beba97004ebb970007007800a6
:104d6000cbf90700680147005e4290008482fb0097
:104d70006e4290000482fb004822dd0005027200b2
:104d80008000eb00840078007e4290008482fb006b
:104d90000000eb00f40f20000482620005f02f00f9
:104da000850260000482720004007800ceb2970091
:104db0005eb39700eeb3970002027800010178001d
:104dc000800178001e009000ae009000c8fc070033
:104dd00000027800040f78001e027800e10f5200f4
:104de0001b00340068004700052620008e82420028
:104df0006e329200841f7800720257001403be00c6
:104e0000869fbe00640242001403be00869fbe005f
:104e1000640242001403be00869fbe00640242008a
:104e2000800378001e03780015007800950090003c
:104e300025019000b501900045029000d502900038
:104e400007fe0700ee87570000027800040f780085
:104e50001e027800040078004f0478000080fa00f9
:104e6000000006001200fa00cca2a800f110070012
:104e70000e007800c0110700ec0347009e00780088
:104e80001e019000ae0190003e029000ce02900004
:104e90005e03900007007800a81407006e029000df
:104ea000fe029000f4b7880005b888008e0a9000d2
:104eb00015b88800e06f21003b08070074b8800037
:104ec000e00f5200010032009704070064b8800030
:104ed000e00f52000100320006130700cca2a90027
:104ee0000080fa00000006001a00fa00680247007d
:104ef000040078009c0307004e029000cfa2de0061
:104f00000400be0049ee07000002be0002002000bf
:104f1000a34724000400be0083f207000002be0085
:104f200074079800050f98005e029000cfa2de0083
:104f30000400be003dee07000002be00020020009b
:104f4000a34724000400be0077f207000002be0061
:104f5000140f9800250f98006e029000cfa2de007b
:104f60000400be0031ee07000002be00c2372c0074
:104f700043ae23000400be0014f007000002be0090
:104f8000340f9800450f98009460a9007e009000af
:104f90008e0890001e099000ae0990003e0a900015
:104fa000ce0a9000871107000e00780064110700f8
:104fb0003e00be002e01be00d30307009460a8008f
:104fc0000080fa00000006001c01fa00e11407004e
:104fd00002150700d0a2a900c8a2a9000002eb0098
:104fe00024b8880020b88000000f7800040020005a
:104ff00005f82300440f9800550f98000400200086
:10500000052a2400640f9800750f98000400200002
:1050100005f82300041798001517980004002000d5
:10502000052a240024179800351798000042eb0049
:105030000440780006f7b7000002eb0044b888008f
:105040000002eb0054b888000e1290009e129000ef
:105050002e139000be1390004e089000de089000c2
:105060006e099000fe099000600307009812070087
:105070003a100700a013070020c0b3003208070051
:105080009860a80062c0b300e16f210020c2b300a5
:105090003507070022c0b3004170210000c2b300f1
:1050a0003107070040702100bf0707000002eb0036
:1050b00064b888000002eb0074b888000200200089
:1050c0000312240010002000060a070021732200aa
:1050d00010002000940b070010002000320b070086
:1050e000d4a2a900010037000000000024b880000d
:1050f0006123b90054002000050020000602420090
:1051000087824a008600200007002000860f520098
:10511000878f5a0001033e0004600100f802370047
:10512000f7023700f6023700f5023700f4023700c5
:10513000030037002a00370096013700ae0237001f
:10514000a46a210014427800e04f5200f5023200b8
:10515000246a2100144278000482fb00e50f52000b
:1051600011003200f20f520003003200e30f520030
:1051700003003200160037005bff07001400370001
:105180009460a9008a1307001400200064b8880006
:105190001400200074b888009460a8001400200057
:1051a00024b888000a0037009460a9008013070023
:1051b0000002eb0064b888001400200074b8880076
:1051c0009460a8003400200024b88800000000008b
:1051d0000042eb0004407800aaf6b700da0237007c
:1051e000a46a210014427800e04f5200cf0232003e
:1051f000246a2100144278000482fb00cfa2de0062
:105200002601200007002000860f5200878f5a00d9
:1052100059013e00046001001e00370053003700b2
:10522000570137005601370010003700540137008e
:105230005301370089003700e00037005001370084
:105240004f0137004e0137004d0137004c01370048
:105250004b0137004a013700490137004801370048
:105260000000370020ff0700460137009460a900c6
:10527000621307000002eb0064b888000002eb0034
:1052800074b888009460a8000002eb0024b888007d
:105290003c013700040420000e02420004007800a4
:1052a000b10207000e229000cfa2de000400be0073
:1052b0005eed07000002be0002002000a3472400ac
:1052c0000400be0098f107000002be0054079800d9
:1052d000650798001e229000cfa2de000400be00e9
:1052e00052ed07000002be0002002000a347240088
:1052f0000400be008cf107000002be007407980095
:10530000050f98002e229000cfa2de000400be0000
:1053100046ed07000002be0002002000a347240063
:105320000400be0080f107000002be00140f9800c8
:10533000250f98009460a9001e0a9000ae0a900004
:105340007e0190008e0990005e009000ee009000bb
:10535000b31007009460a8000002eb004407980017
:105360002400200024b88800060137002410200003
:105370000e024200040078007b0207001e0291002a
:10538000ae0291000427980015279800be029100f4
:10539000252798000e229000cfa2de000400be0058
:1053a00022ed07000002be00c2372c0043ae2300ee
:1053b0000400be0005ef07000002be00540798007d
:1053c000650798001e229000cfa2de000400be00f8
:1053d00016ed07000002be00c2372c0043ae2300ca
:1053e0000400be00f9ee07000002be00740798003a
:1053f000050f98002e229000cfa2de000400be0010
:105400000aed07000002be00c2372c0043ae2300a5
:105410000400be00edee07000002be00140f98006d
:10542000250f98009460a9001e0a9000ae0a900013
:105430007e0190008e0990005e009000ee009000ca
:105440009b1007009460a8000002eb00440798003e
:105450002400200024b88800ca003700d4a2a80085
:105460009460a900840220000e024200040078002b
:10547000411007009460a800241020000e02420092
:1054800004007800380207001e039100ae0391006b
:105490000627980017279800be0391002727980039
:1054a0000e229000cfa2de000400be00dfec070059
:1054b0000002be0002002000a34724000400be003a
:1054c00019f107000002be00241f9800351f980044
:1054d0001e229000cfa2de000400be00d3ec070025
:1054e0000002be0002002000a34724000400be000a
:1054f0000df107000002be00441f9800551f9800e0
:105500006022b800641f9800751f9800e004200016
:105510000e00400034b8800045b88000849fbe0073
:105520000a17f800440320000e0242001403be00d4
:10553000869fbe00640242001403be00869fbe0028
:10554000640242001403be00869fbe006402420053
:10555000000378004e109000de1090006e11900055
:10556000fe1190000e1a90009e1a900057fd070041
:10557000f287570000027800240798002e0290005e
:10558000e00f520003003d002e00900020b888007c
:105590000800370014002000140798000002eb00f8
:1055a00034079800140020004407980024002000cd
:1055b00024b88800d4a2a900720037009460a90022
:1055c000841020000e02420004007800ea0f070059
:1055d000841020000e024200850220008e824200cc
:1055e000b41a7800a4127800e482420064024200f7
:1055f000b41a7800a4127800e482420064024200e7
:10560000b41a7800a4127800e482420064024200d6
:105610009460a800241020000e02420004007800cc
:10562000d10107001e029100ae02910004279800ec
:1056300015279800be029100252798000e229000a1
:10564000cfa2de000400be0078ec07000002be001e
:1056500002002000a34724000400be00b2f00700af
:105660000002be00241f9800351f98001e229000e3
:10567000cfa2de000400be006cec07000002be00fa
:1056800002002000a34724000400be00a6f007008b
:105690000002be00441f9800551f98002e22900063
:1056a000cfa2de000400be0060ec07000002be00d6
:1056b000c2372c0043ae23000400be0043ee0700b7
:1056c0000002be00641f9800751f9800e0042000cf
:1056d0000e00400034b8800045b88000849fbe00b2
:1056e0000a17f800440320000e0242001403be0013
:1056f000869fbe00640242001403be00869fbe0067
:10570000640242001403be00869fbe006402420091
:10571000000378004e109000de1090006e11900093
:10572000fe1190000e1a90009e1a9000e7fc0700f0
:10573000f287570000027800240798002e0290009c
:10574000e00f520003003d002e03900026b88800b1
:105750000c00370014002000140798000002eb0032
:1057600034079800240020004407980024002000fb
:1057700024b8880003003700000000000100370053
:10578000000000000042eb0004407800aaf6b700d9
:105790006d013700a46a210014427800e04f5200e6
:1057a0001d003200246a2100144278000482fb00ac
:1057b000e40f520007003200f20f520003003200e3
:1057c000e20f52000d00320010003700c6fd070046
:1057d0000e0037009460a900081207000002eb00d9
:1057e00064b888000002eb0074b888009460a800d8
:1057f0000002eb0024b88800040037009460a90080
:10580000d20f07009460a800000000000042eb00e7
:1058100004407800aaf6b7009460a9003d02070092
:1058200000027800340f98009460a8003e0a9000af
:10583000e00f52003f013a004e029000e10f52008b
:1058400008003200e10f520003003900e20f52005d
:1058500059003200e70037001400200024b8880007
:10586000e40037003e029000e00f520042003a0090
:105870009e0290002e029000848f52003b003d005b
:105880009460a900241020000e0242000400780059
:10589000390f0700241020000e024200850220006c
:1058a0008e824200b41a7800a4127800e48242008a
:1058b00064024200b41a7800a4127800e482420024
:1058c00064024200b41a7800a4127800e482420014
:1058d000640242009460a800600420000e004000b2
:1058e0001e0290006c22b9000402780004024700f6
:1058f000e404b0001403be00869fbe0064024200b0
:105900001403be00869fbe00640242001403be0062
:10591000869fbe0064024200ce1090005e1190008f
:10592000ee1190007e1290008e1a90001e1b9000c7
:105930001b100700ec8757009460a9005e229000be
:10594000ee2290006e0b9000fe0b90002e10900047
:10595000be1090000601be00550f07009460a8001d
:1059600014002000340798001200370014002000b3
:1059700024b888000f0037009460a9003e229000f0
:10598000ce2290004e0b9000de0b90000e10900087
:105990009e1090000601be00210f07009460a80031
:1059a0000002eb00340798001e0290000402e80099
:1059b000140798008f0037003e029000e00f52005d
:1059c0007c003a009e0290002e029000848f5200cc
:1059d00043003d009460a900241020000e02420004
:1059e00004007800e40e0700241020000e0242009c
:1059f000850220008e824200b41a7800a41278003a
:105a0000e482420064024200b41a7800a4127800d2
:105a1000e482420064024200b41a7800a4127800c2
:105a2000e4824200640242009460a8004011200019
:105a30000e0040001e0290006c22b90004027800a3
:105a400004024700e404b0001403be00869fbe00b9
:105a5000640242001403be00869fbe00640242003e
:105a60001403be00869fbe0064024200ce10900068
:105a70005e119000ee1190007e1290008e1a900040
:105a80001e1b9000c60f0700ec8757002e0a9100de
:105a9000be0a91004e0b9100de0b91003427980056
:105aa0004527980056279800672798009460a9001a
:105ab0005e229000ee2290006e0b9000fe0b900094
:105ac0002e109000be1090000601be00f80e0700d8
:105ad0009460a800140020003407980044003700a8
:105ae0009e0290002e029000848f52002e003a00f9
:105af0009460a900241020000e02420004007800e7
:105b00009d0e0700241020000e0242008502200096
:105b10008e824200b41a7800a4127800e482420017
:105b200064024200b41a7800a4127800e4824200b1
:105b300064024200b41a7800a4127800e4824200a1
:105b4000640242009460a8006e1b9000fe1b90004f
:105b50000e1a90009e1a90000401be000600be00be
:105b60002cec07000002be0054079800650798005f
:105b70009460a9006e0b9000fe0b90002e10900018
:105b8000be1090005e029000ee0290000601be0082
:105b9000c70e07009460a8001e0290000402e800ef
:105ba00014079800120037001400200024b8880061
:105bb0000f0037009460a9003e229000ce22900092
:105bc0004e0b9000de0b90000e1090009e10900087
:105bd0000601be00920e07009460a8000002eb00d0
:105be000340798001e0290000402e8001407980091
:105bf0000000000054003700a46a2100144278001d
:105c0000e04f52004d003200246a21001442780017
:105c10000482fb00e60f520011003200f20f520026
:105c200003003200e40f520003003200300037005e
:105c3000adfc07002e0037009460a900ef100700ac
:105c40000002eb0064b888000002eb0074b8880022
:105c50009460a8000002eb0024b8880024003700fc
:105c6000346a2100144278000482fb00cfa2de00d7
:105c70000400be00edea07000002be0002002000a2
:105c8000832c24000400be0027ef07000002be00a2
:105c90005407980065079800446a21001442780070
:105ca0000482fb00cfa2de000400be00dfea070092
:105cb0000002be0002002000832c24000400be006d
:105cc00019ef07000002be0074079800050f980046
:105cd0009460a9007e0190008e0990005e00900003
:105ce000ee009000d81007009460a80000000000ab
:105cf0000042eb0004407800aaf6b700120037001b
:105d0000a46a210014427800e04f52000d003200d6
:105d10001400200024b888000b00370000000000a9
:105d200009003700000000000700370000000000f5
:105d300005003700000000000300370000000000ed
:105d4000010037000000000024b880009e0f5200c0
:105d5000e5fc320024b88000040f78004070210078
:105d600091040700e1fc37000800fa000002780007
:105d7000356a21009542780065479800456a210000
:105d80009542780075479800be029000050f780094
:105d9000556a21009542780065479800656a2100a0
:105da0009542780075479800be029000150798004c
:105db000756a21009542780065479800856a210040
:105dc0009542780075479800be029000250798001c
:105dd0003e1a78002e127800ae029000250298003c
:105de000040078000080fa00000006001000fa00ad
:105df000009fbe000297be00440798005507980018
:105e00006607980077079800c66a21006022b800ec
:105e1000048bbe00466b21006022b800048bbe00dc
:105e2000c66b21006022b800048bbe001e02be00bb
:105e3000466c2100048bbe004e029000de029000f2
:105e4000c66c2100048bbe00c46c21001402be008d
:105e500072712b00138523000400be005bec070069
:105e60000002be00466d2100048bbe00c66a210000
:105e70006022b8002403980035039800466b210087
:105e80006022b8002403980035039800c66b2100f7
:105e90006022b80024039800350398002e02900079
:105ea000be029000466c2100240398003503980040
:105eb0006e029000fe029000c66c21002403980040
:105ec00035039800c46c2100b402900024029000b5
:105ed00072712b00138523000400be003bec070009
:105ee0000002be00466d210024039800350398008f
:105ef0000002eb00e4b68800e4b6800004007800fd
:105f00000080fa00000006000800fa00009fbe00b2
:105f10000297be001e02be00466b2100048bbe002d
