:020000040000fa
:080000000002040000000000f2
:020000040000fa
:1000080040030000400300004003000040030000dc
:1000180040030000400300004003000040030000cc
:1000280040030000400300004003000040030000bc
:10003800e408000040030000400300004003000003
:10004800aa0c000040030000400300004003000029
:100058004003000040030000ec08000040030000db
:10006800400300004003000040030000400300007c
:10007800400300004003000040030000400300006c
:10008800400300004003000040030000400300005c
:10009800400300004003000040030000400300004c
:1000a80040030000400300004003000098020000e5
:1000b800400300004003000040030000400300002c
:1000c800400300004003000040030000400300001c
:1000d800400300004003000040030000400300000c
:1000e80040030000400300004003000040030000fc
:1000f80040030000400300004003000040030000ec
:1001080040030000400300004003000040030000db
:1001180040030000400300004003000040030000cb
:1001280040030000400300004003000040030000bb
:1001380040030000400300004003000040030000ab
:10014800400300004003000040030000400300009b
:10015800400300004003000040030000400300008b
:10016800400300004003000040030000400300007b
:10017800400300004003000040030000400300006b
:10018800400300004003000040030000400300005b
:10019800400300004003000040030000400300004b
:1001a800400300004003000040030000400300003b
:1001b800400300004003000040030000400300002b
:1001c800400300004003000040030000400300001b
:1001d800400300004003000040030000400300000b
:1001e80040030000400300004003000040030000fb
:0801f800400300004003000079
:020000040000fa
:1002080040030000400300004003000040030000da
:1002180040030000400300004003000040030000ca
:1002280040030000400300004003000040030000ba
:10023800e408000040030000400300004003000001
:10024800aa0c000040030000400300004003000027
:100258004003000040030000ec08000040030000d9
:10026800400300004003000040030000400300007a
:10027800400300004003000040030000400300006a
:10028800400300004003000040030000400300005a
:10029800400300004003000040030000400300004a
:1002a80040030000400300004003000098020000e3
:1002b800400300004003000040030000400300002a
:1002c800400300004003000040030000400300001a
:1002d800400300004003000040030000400300000a
:1002e80040030000400300004003000040030000fa
:1002f80040030000400300004003000040030000ea
:1003080040030000400300004003000040030000d9
:1003180040030000400300004003000040030000c9
:1003280040030000400300004003000040030000b9
:1003380040030000400300004003000040030000a9
:100348004003000040030000400300004003000099
:100358004003000040030000400300004003000089
:100368004003000040030000400300004003000079
:100378004003000040030000400300004003000069
:100388004003000040030000400300004003000059
:100398004003000040030000400300004003000049
:1003a8004003000040030000400300004003000039
:1003b8004003000040030000400300004003000029
:1003c8004003000040030000400300004003000019
:1003d8004003000040030000400300004003000009
:1003e80040030000400300004003000040030000f9
:0803f800400300004003000077
:020000040000fa
:100400002f8f20000eff23000e0188000000000047
:100410000c000700a0e820000100200011000700e8
:10042000000020000000e000020032000000020096
:1004300000000000f4080200000000000040da00a4
:100440000000fe004440a900c00020000000e000c1
:100450000300320000002000a00188004440a800f2
:100460000000060091018800800078000000eb0089
:1004700015003700e280400032a0b4009101ba00bc
:10048000e280400032a0b4009102ba00e280400055
:1004900032a0b4000002eb00472bde00f507b200eb
:1004a000602ce10004003a000059eb008301e900f0
:1004b000fdff3e00040037006128e100010032002a
:1004c0000082eb00040007001101ba000200e00006
:1004d000e8ff3a00000006003159ba008301e90044
:1004e0000c0032002159ba008301e90008003200f3
:1004f0000400e00003003a00e280400032a0b400b3
:10050000f5ff370011d9ba008301e900faff3a007c
:100510008100e800e180400032a0b4000000060045
:10052000ca0d040000000000fa0d040000000000e5
:10053000809fbe000600fa008860a900502080005d
:1005400062006000e00f50004a0032000a24a90057
:10055000012180000010200000806000e00f5000aa
:1005600021003200700482004800de007f406000fd
:100570000080fb006600b900800078000083200046
:1005800000804000200798002e009000100090008e
:10059000100798000040eb00004f78000c00370077
:1005a0009e4078000180fb00e60040000008240027
:1005b00000804000104078009e0090008048780045
:1005c0001e0090000000e800100798001e4fe80091
:1005d0002e009000404090009e4f5000f0ff3e00e3
:1005e0002104a90023003700012180000020200001
:1005f00000806000e00f50001e0032009ac8bf006b
:10060000e04f50001a003a006009240010407800c2
:1006100092e8b700700924001040780093e8b70012
:10062000800924001040780094e8b7009009240065
:100630001040780095e8b700a00924001040780029
:1006400096e8b700b00924001040780097e8b7009a
:10065000c00924001040780098e8b700d0092400b1
:100660001040780099e8b70010c0b3009ae8b700ce
:100670002124a9000080fa004f00be0000400600bf
:100680000040da000000fe006022b80006022000f0
:100690000000d0008180d2000482d2008582d20086
:1006a0000000a0000202520083825a0003003100c1
:1006b0000202420083824a000000a1000603e90012
:0806c000f3ff3a000000060000
:020000040000fa
:1006c800a0000000f505000000000000180b000065
:0806d800f50500000807000011
:020000040000fa
:1006e0000600fa00004f7800110798004247980072
:1006f0008ac8bf00e84f50003b003e008ac8bf00d8
:100700000040e8008ae8b7008ac8bf000080fb000c
:100710006600b90080007800008020000080400062
:100720001e4878008ac8bf008080fb001e41780008
:100730000280fb00f27f2000020060004409dd001f
:100740000100240081004100f27f200002006000cf
:100750004200dd009101780032002e00028161002c
:1007600000007100800878008ac8bf000080fb008c
:100770006600b900800078002080200000804000e2
:100780009e009000010878008ac8bf000080fb002e
:100790006600b900800078004080200000804000a2
:1007a0004e419000024878008ac8bf008080fb005c
:1007b0004e4090006f4060004409dd00410024007d
:1007c000810041000080fb006f0060009101780013
:1007d00002ff2f0002816100000071008008780094
:1007e0000080fa0000000600ffff37000600fa0054
:1007f000004f780011079800424798008bc8bf004f
:10080000ef4f50001f003e008bc8bf000080fb0070
:100810006600b9008000780000832000008040005e
:100820001e4878008bc8bf000080fb006600b9003e
:100830008000780020832000008040009e0090000f
:10084000010878008bc8bf000080fb006600b9007b
:10085000800078004083200000804000ce4090005f
:10086000014878008bc8bf009e407800080107004f
:100870008bc8bf000040e8008be8b7000080fa009a
:1008800000000600ffff37000000fa0010c0b300b0
:100890008de8b700050037008dc8bf00860107004e
:1008a0008dc8bf000040e8008de8b700d188200067
:1008b000914078008ac8bf0080cf5000f6ff360014
:1008c0000080fa00000006000200fa00000f780025
:1008d00010c0b3008ce8b7000d0037008cc8bf0013
:1008e0000080fb006600b900000078008080e8000e
:1008f0000080200000804000100078009e0f500013
:10090000090032008cc8bf000040e8008ce8b70046
:10091000c1882000914078008ac8bf0080cf500075
:10092000eeff360001003700000000008cc8bf0059
:100930008080fb008ac8bf000080fb000000e80048
:10094000808f500001003a00ffff37008cc8bf00c5
:10095000590107000080fa00000006000800fa00b4
:1009600030079800000000008021800068006000cf
:10097000e00f5000fcff3a003e0090001000900095
:100980001007980060002400200798003e009000a7
:10099000104078000080fb00f17f20000100600023
:1009a000f17f2000010060004200dd0002008200b3
:1009b00031002e00810061000080700000008a007c
:1009c0003e009000404090006f4060000080fb00bf
:1009d0006f0060002200820001ff2f008100610093
:1009e0000080700020008a000040eb00004f78007b
:1009f0000b0037001e00900010407800ae00900001
:100a0000804878002e0090000000e8002007980041
:100a10001e0090000000e800100798001e4fe8003c
:100a20003e009000404090009e4f5000f1ff3e007d
:100a30003024a8003004a8003064a8000080fa0028
:100a4000000006000200fa00004f7800400020007d
:100a50003800070000122a00710020004c00070037
:100a600000082800802188000008280090218800c4
:100a700000082800a021880000082800b021880074
:100a800031208000f0ff21008080600000002600ff
:100a900000807000302088003120800000fe2f0090
:100aa000008060000040a00030208800000121008c
:100ab000402088000004a8008088280000218800c9
:100ac0008088280010218800808828002021880044
:100ad000808829003021880000002800a02088009c
:100ae0000000eb00c02088000000eb00d020880050
:100af00080fe2f00802188009e407800f0c0b30067
:100b0000630007000004a9000c24a800740107007a
:100b1000900107000000eb00060007000040eb001a
:100b20008ae8b7000040eb008be8b7000080fa00cd
:100b3000000006000200fa00000f78000184a800ff
:100b40001e00780000407800674060000080fb00d5
:100b5000670060004800dd0002208000f18f2f0058
:100b6000810061000080700000208800000000000b
:100b7000002080004500de00674060000080fb0030
:100b80009e0f5000faff3a000080fa0000000600b5
:100b90000600fa0010079800210798000020800046
:100ba0004500de00674060000080fb00000f780019
:100bb00040002000dfff07000164a80081208000c2
:100bc000000c20000080700080208800ae009000a3
:100bd000800220000088b900000178001e0090000b
:100be0006000b90000007800000141009e00900004
:100bf000800220000008b800010141008200780056
:100c00000001be0000a02500212620009efe070056
:100c1000004078000040e900f043b2008080fb0013
:100c2000f0032000008060008220800001fc2f0083
:100c30008100610000807000802088009120800089
:100c400080032000008070009020880012e4a8003b
:100c500091208000f08f2f008080600000502000e5
:100c600000807000902088009120800080ff2f007d
:100c7000008060000020a0009020880012c4a8001e
:100c80001e007800abff07000080fa00000006009d
:100c90000400fa00204798003147980000208000a7
:100ca0004500de00674060000080fb00000f780018
:100cb000400020009fff07000004a8002e40900085
:100cc0000080fb00cf80de00f20020000300200047
:100cd000820f5000838f580071003e0000600100b9
:100ce0000f00370014003700190037001e003700ce
:100cf00023003700280037002d003700320037006e
:100d0000370037003c00370041003700460037000d
:100d10004b00370050003700550037005a003700ad
:100d20003e4090000080fb004500dd00002288006e
:100d30001404a8005b0037003e4090000080fb00d8
:100d40004500dd00202288001424a800550037004b
:100d50003e4090000080fb004500dd0040228800fe
:100d60001444a8004f0037003e4090000080fb0074
:100d70004500dd00602288001464a80049003700a7
:100d80003e4090000080fb004500dd00802288008e
:100d90001484a800430037003e4090000080fb0010
:100da0004500dd00a022880014a4a8003d00370003
:100db0003e4090000080fb004500dd00c02288001e
:100dc00014c4a800370037003e4090000080fb00ac
:100dd0004500dd00e022880014e4a800310037005f
:100de0003e4090000080fb004500dd0000238800ad
:100df0001504a8002b0037003e4090000080fb0047
:100e00004500dd00202388001524a80025003700b8
:100e10003e4090000080fb004500dd00402388003c
:100e20001544a8001f0037003e4090000080fb00e2
:100e30004500dd00602388001564a8001900370014
:100e40003e4090000080fb004500dd0080238800cc
:100e50001584a800130037003e4090000080fb007e
:100e60004500dd00a023880015a4a8000d00370070
:100e70003e4090000080fb004500dd00c02388005c
:100e800015c4a800070037003e4090000080fb001a
:100e90004500dd00e023880015e4a80001003700cc
:100ea000000000000004a9001e00780021ff0700d8
:100eb0000080fa00000006000800fa006047980071
:100ec0006e4090000080fb006600b90000007800d2
:100ed0008080e80000802000008040001000780042
:100ee000100798006e4090000080fb004400dd0079
:100ef000e600400000002400008040002007980029
:100f00000040eb00004f78000b0037001e009000ff
:100f100010407800ae009000804878002e009000cd
:100f20000000e800200798001e0090000000e80084
:100f3000100798001e4fe8006e4090000080fb00f4
:100f40006600b90000007800e40040000080200046
:100f500000804000104078009e4f5000ebff3e00a4
:100f60006e4090000080fb00cf80de007200200009
:100f700003002000820f5000838f580055003e0070
:100f800000600100070037000f003700180037002d
:100f90002000370029003700310037003a003700c1
:100fa00042003700000000008021800068006000df
:100fb000e00f5000fcff3a003024a8003004a800e5
:100fc0003064a80044003700000000008121800048
:100fd0000080200000806000e00f5000fbff3a001e
:100fe0003124a8003104a8003164a8003a00370079
:100ff000000000009021800068006000e00f5000b9
:10100000fcff3a003224a8003204a8003264a80091
:101010003100370000000000912180000080200096
:1010200000806000e00f5000fbff3a003324a8006e
:101030003304a8003364a800270037000000000034
:10104000a021800068006000e00f5000fcff3a0023
:101050003424a8003404a8003464a8001e0037001b
:1010600000000000a12180000080200000806000be
:10107000e00f5000fbff3a003524a8003504a8001b
:101080003564a8001400370000000000b021800083
:1010900068006000e00f5000fcff3a003624a80012
:1010a0003604a8003664a8000b00370000000000da
:1010b000b12180000080200000806000e00f50001f
:1010c000fbff3a003724a8003704a8003764a800c3
:1010d00001003700000000000080fa000000060058
:1010e0000000fa000000eb00001f880081c3a90087
:1010f00081a3a8008183a9008163a900011c80004d
:10110000f0fc2f0080806000000220000080700052
:10111000001c8800011c8000c0ff2f0000806000c0
:10112000001c880060042000101c8800204420005f
:10113000401c880070002000501c88000000eb005c
:10114000201c880081e3a8009480a8000080fa0099
:10115000000006000000fa000000eb00101f8800ed
:101160008dc3a9008da3a9008d83a9008d63a9005b
:10117000611c8000f0fc2f008080600000022000d5
:1011800000807000601c8800611c8000c0ff2f0080
:1011900000806000601c880020022000701c880015
:1011a00000442000a01c880070002000b01c8800b3
:1011b0000000eb00801c88008de3a80095c0a8000b
:1011c0000080fa00000006000000fa008480a900f8
:1011d0000080fa00004006000000fa0085c0a90067
:1011e0000080fa00004006001a00fa0010002000fb
:1011f0001007980097020700ee020700bf010700e2
:10120000f201070010c0b3000efe07004e010700f8
:10121000c3000700100207009860a8000000eb0060
:10122000000f7800e5010700e00f500002003200d7
:1012300020002000000f78001e007800e10f500011
:1012400036003200e10f500003003900e20f500079
:101250009c003200a100370091168000000420009d
:1012600000806000e00f50000d00320010002000f0
:101270004007980080b1200050079800505f200080
:10128000600798008070200070079800c0892000d7
:101290009045880010002000804588000e0037002f
:1012a0000000eb0040079800000a2000500798005b
:1012b000505f2000600798000000eb007007980066
:1012c000608a20009045880010002000804588003a
:1012d0003000200080458800911680000008200022
:1012e00000806000e00f50000b0032001000200072
:1012f000000f78005e009000ee0090007e019000ec
:1013000052010700100020001007980011e1a8000a
:1013100040062000ba010700700037001e00900050
:101320006101b8000080eb008080eb00020040000b
:10133000838048003200200003002000820f50000c
:10134000838f58005d003e000060010003003700fd
:101350000900370018003700570037006000070009
:10136000200798000000eb003007980030002000b4
:101370001007980052003700be0090002e00900029
:1013800010009000808f5000080031002e00900067
:10139000c00090003e009000004078000100010075
:1013a000ae00900080087800020037001000200096
:1013b00010079800420037002e00900010007800bf
:1013c000e20f500005003200e30f50002a00320007
:1013d000e10f50000a00320030003700f70007002c
:1013e000e10f500005003a003e0090000000e800c8
:1013f0003007980020002000100798002d003700cb
:101400005a0007000000fb00cf80de0082002000b1
:1014100003002000820f5000838f580014003e000c
:101420000060010008003700110037000c00370091
:101430000c0037000e0037000a00370009003700a3
:1014400008003700070037003e0090000000e80069
:101450003007980020002000100798000500370092
:101460000400370020002000000f78000100370042
:10147000000000000f0037008a010700e14f500014
:1014800005003a003e0090000000e8003007980098
:101490002000200010079800060037003e00900052
:1014a0000000e80030079800200020001007980096
:1014b00000000000020037000100370000000000bb
:1014c000060037008001eb000001eb008000eb001c
:1014d00020c0b300bd0007000000000051ff37002e
:1014e0000000fa002146800080458000808f500077
:1014f00003003100204680000000e80020468800fc
:10150000204680000000e90080004000208b200081
:1015100000804000100078000080fa000000060003
:101520000000fa0072c0b300618d200080c0b300db
:101530006bfc070012c0b300218e200000c8b3006e
:10154000aafc070022c0b300018e200010c8b3001f
:10155000a6fc070022c0b300e18d200020c8b30024
:10156000a2fc07000080fa00000006000000fa005c
:10157000e2c8bf000080fa00000006000800fa0080
:10158000004f780011079800220798003307980051
:101590001e407800d6e8b7001e009000004078009a
:1015a000d7e8b7001e0090004880de0000407800b9
:1015b000d8e8b7002e00900000407800d9e8b700c6
:1015c0002e0090004880de0000407800dae8b70086
:1015d0003e00900000407800dbe8b7003e0090003d
:1015e0004880de0000407800dce8b700608d200015
:1015f000b5fc07000080fa00000006000200fa00b7
:10160000000f78008001eb000001eb009e007800e5
:1016100060c0b300d9ff07000080fa000000060098
:101620000600fa00000f78001107980022079800c2
:101630009e0090001e0078008001eb000101780000
:10164000800078000040eb00ccff07000080fa002b
:10165000000006000600fa00000f7800110798004d
:10166000220798002e0190009e0090001e00780036
:1016700082017800010178008000780010c0b3007a
:10168000beff07000080fa00000006000600fa0016
:10169000000f780011079800220798009e00900024
:1016a0001e007800130020000101780080007800ff
:1016b00020c0b300b1ff07000080fa000000060060
:1016c0000c00fa00000f780011079800220798001c
:1016d0003307980044079800550798009e00900033
:1016e0001e007800230020000101780080007800af
:1016f00020c0b300a1ff070000d02200111320007a
:10170000bc010700ce0090003e0090008001eb007d
:10171000010178008000780030c0b30097ff070017
:101720000080fa00000006000000fa008001eb00d3
:101730000001eb008000eb0050c0b3008fff0700fa
:101740000080fa00000006000000fa0072c0b3003a
:10175000c18c200020c0b300e1fb070062c0b300d1
:10176000618c200020c2b30020fc070022c0b3001f
:10177000418d200000c2b3001cfc07000080fa006d
:10178000000006000600fa009860a90032468000ba
:1017900043468000028fbe00534680002307980016
:1017a0009860a8001e01be000288be00ae01900035
:1017b000230098000080fa00000006000000fa00f4
:1017c000a04680000080fa00000006000800fa0031
:1017d000004f7800110798002207980033079800ff
:1017e0001e407800cce8b7001e0090000040780052
:1017f000cde8b7001e0090004880de000040780071
:10180000cee8b7002e00900000407800cfe8b70087
:101810002e0090004880de0000407800d0e8b7003d
:101820003e00900000407800d1e8b7003e009000f4
:101830004880de0000407800d2e8b700c08c20006d
:1018400021fc07000080fa00000006000600fa00f4
:10185000000f780011079800220798002e019000d1
:101860009e0090001e00780082017800010178003f
:101870008000780020c1b300d4ff07000080fa0088
:10188000000006000600fa00000f7800110798001b
:1018900022079800ae0190001e0190009e00780083
:1018a0000040eb00c9ff07000080fa0000000600be
:1018b0000600fa00000f7800110798002207980030
:1018c000ae0190001e0190009e00780010c0b30091
:1018d000beff07000080fa00000006000000fa00ca
:1018e0008001eb000001eb008000eb0020c0b300a2
:1018f000b6ff07000080fa00000006000000fa00b2
:1019000011e1a90013e1a9001061a800810880007d
:10191000f0fc2f00008060000040a00080088800dc
:101920001021a900f04727006008880020ad2100a1
:10193000700888000000eb00300888000000eb0011
:10194000500888008500a9009500a8000080fa00d2
:10195000000006003600f800809fbe00829fbe0097
:10196000849fbe00869fbe003400f8000000200067
:10197000a00188000000fa008500a90011e1a9007b
:1019800010002000804788008001eb000001eb0080
:101990008000eb0020c0b3008cff07000080fa003d
:1019a0003400f9004f03be004f02be004f01be00dd
:1019b0004f00be003600f900004006000000fa00ab
:1019c000804780000080fa00000006000000fa0056
:1019d00005e1a90021088000f0fc2f0000806000d4
:1019e000200888000421a900f0c3290010088800fd
:1019f0000000eb00000888000080fa0000000600ec
:101a00000400fa00100798000000eb00000f7800b7
:101a10008460a90005e1a80007003700000000006d
:101a20002004800068006000e00f5000fcff3200de
:101a30008460a9001e0fe8001e0090009e0f500059
:101a4000f6ff3e0005e1a9000000eb000008880059
:101a50000080fa00000006000000fa0072c0b30027
:101a6000418e200030c0b3001dfb070012c0b30040
:101a7000b18e200000c3b3005cfb070022c0b3009e
:101a8000c18e200010c3b30058fb070022c0b30072
:101a9000e18e200020c3b30054fb07000080fa0051
:101aa000000006000000fa00ebc8bf000080fa004a
:101ab000000006000000fa00604780000080fa0085
:101ac000000006000000fa00704780000080fa0065
:101ad000000006000800fa00004f78001107980087
:101ae00022079800330798001e407800e4e8b7000a
:101af0001e00900000407800e5e8b7001e0090004e
:101b00004880de0000407800e6e8b7002e00900034
:101b100000407800e7e8b7002e0090004880de0023
:101b200000407800e8e8b7003e00900000407800f0
:101b3000e9e8b7003e0090004880de0000407800f1
:101b4000eae8b700408e20005ffb07000080fa0043
:101b5000000006000000fa008001eb000001eb002d
:101b60008000eb0060c0b300daff07000080fa00dd
:101b7000000006000000fa008001eb000001eb000d
:101b80008000eb0080c0b300d2ff07000080fa00a5
:101b9000000006000a00fa0040079800803e20007e
:101ba00010079800803e2000200798000000eb00fe
:101bb000300798004e009000e00f500007003a00f8
:101bc0001e009000ae0090003e019000a1fe0700b4
:101bd00010002000000f7800030037000000eb0029
:101be000000f7800000000001e0078000080fa005e
:101bf000000006000a00fa0040079800409c200000
:101c000010079800803e2000200798008070200078
:101c1000300798004e009000e00f500007003a0097
:101c20001e009000ae0090003e01900089fe07006b
:101c300010002000000f7800030037000000eb00c8
:101c4000000f7800000000001e0078000080fa00fd
:101c5000000006000000fa00e0012000303a880091
:101c6000213a8000f0f32f0000806000203a8800c5
:101c7000213a800000fe2f0000806000203a88009a
:101c80003200200080072000a109200033742000ca
:101c9000804978008149780082497800120020004c
:101ca0006004200071052000237420008049780022
:101cb000814978008249780000000000113a8000d4
:101cc000000027008080600000002300808f50000b
:101cd000faff3a000080fa00000006000000fa0057
:101ce000a135800000fe2f0000806000a000b3003e
:101cf000a035880051368000f00f2e0080806000f3
:101d00000000210000807000503688000080fa003a
:041d100000000600c9
:020000040000fa
:101d1400e40800000c0000000000000000080000bf
:101d24009c00000000000000004000008000000053
:101d340000000000904000001000000000000000bf
:101d4400804000001000000000000000d6080000e1
:101d54000e00000000000000c60800001000000093
:101d6400000000009c0800001600000002000000b3
:101d740000000100000000000000ca000d00000087
:101d84000100000000000000fa0d00000000000047
:101d9400b20800001400000000000000f008000079
:101da400020000000200000000000000000000002b
:020000040000fa
:101db4000000fa00d0c2a800d0e2a800a13580003b
:101dc40000fe2f00008060004001b300a0358800b1
:101dd40091368000f00f2e0080806000000021000a
:101de40000807000903688000080fa000000060031
:020000040000fa
:101df400f03fb1000180b10006003500ee03090098
:101e040000000000403fb1000180b100fbff3d0035
:101e14001000b000203fb00002003500008009002f
:081e24000000000000000600b0
:020000040000fa
:0200000401f009
:04000800ffff0000f6
:020000040000fa
:0200000401f009
:04000c00f8ff0000f9
:020000040000fa
:0200000401f009
:040010007dff000070
:020000040000fa
:0200000401f009
:040014007fff00006a
:020000040000fa
:0200000401f009
:04001c00dfff000002
:00000001FF
